:100202003F065B4F666D7D077F6F777C395E797144
:0102120000EB
:0B022F00EF1FAC0670011E4C70F622A1
:10000E00C39512FBE49400FA7C007D64AF03FE12EC
:10001E000150ED75F00A8490020293F50C7C007D80
:10002E000AAF03AE021201A574022DF58274023CD2
:10003E00F583E493F50DE4F50EF50F850C10850DA3
:01004E0011A0
:10004F00E4FDEDB40800504D90005EF828287302CF
:10005F00007602007A02008202008602008E020001
:10006F009202009A02009EC2A28002D2A2C2A3C232
:10007F00A48022C2A28002D2A2D2A3C2A48016C29E
:10008F00A28002D2A2C2A3D2A4800AC2A28002D2AC
:10009F00A2D2A3D2A4740A2DF8E6F5807F647E0065
:0C00AF0012022FE4F5800DED640870963D
:0100BB002222
:10021300438901758CFC758A18D2A9D2AFD28C227E
:1000BC00751201120213E512B44603751201E51212
:1000CC00C3941F501BE4F50AF50B741E12000E7539
:1000DC0090FFD2B0D2B1C294C291C295C2B080D6B8
:1000EC00E512C39424501CE4F50AF50B742312009A
:1000FC000E7590FFD2B0D2B1C293C290C296C2B06C
:10010C000200C2E512C39442501DE4F50AF50BC37C
:10011C00744112000F7590FFD2B0D2B1C292C2904E
:10012C00C297C2B10200C2E4F50AF50BC3744612C1
:10013C00000F7590FFD2B0D2B1C293C290C296C2DA
:04014C00B00200C23B
:03000B000201DB14
:0401DB00C0E0C0D0F0
:1001DF00758CFC758A180509E50970020508B4E8E5
:0E01EF000DE508B40308750800750900051237
:0501FD00D0D0D0E0327B
:03000000020223D6
:0C022300787FE4F6D8FD7581120200BC63
:10015000BC000BBE0029EF8DF084FFADF022E4CC93
:10016000F875F008EF2FFFEE33FEEC33FCEE9DEC5C
:10017000984005FCEE9DFE0FD5F0E9E4CEFD22EDA2
:10018000F8F5F0EE8420D21CFEADF075F008EF2FEC
:10019000FFED33FD4007985006D5F0F222C398FDDD
:0501A0000FD5F0EA227A
:1001A500C2D5EC30E709B2D5E4C39DFDE49CFCEE75
:1001B50030E715B2D5E4C39FFFE49EFE120150C39C
:1001C500E49DFDE49CFC800312015030D507C3E497
:0601D5009FFFE49EFE22E4
:00000001FF
