:10022E003F065B4F666D7D077F6F00070009FFFF7E
:0A023E0000050005FFFF00030002A9
:0B026A00EF1FAC0670011E4C70F62266
:10024800E42D25E025E0F5A0AE04AF058F828E836E
:050258001200F9F58021
:01025D00227E
:0601DD008B1B8A1C891D2A
:1001E300E4F51EF51EAB1BAA1CA91DE51EFD7C0034
:1001F3001202487FFA7E0012026A051EE51EC394AE
:030203000840E2CE
:0102060022D5
:0401A5008E208F21F8
:1001A90078227C007D007BFF7A02792E7E007F0A0F
:1001B9001200D3C3E52064809480400DD3E52194D7
:1001C90009E5206480948040037F40227422252120
:0301D900F8E6FF46
:0101DC002200
:06015E008B1B8A1C891DA9
:10016400E4F51EF51FE51F25E0FFE51E33AB1BAAD2
:100174001CA91D8F82F583120126FFAEF01201A582
:10018400742C251FF8A607051FE51F7002051EC362
:100194009408E51E6480948040CB7B007A00792C1F
:0101A4002238
:1002070078087C007D007BFF7A0279387E007F10BA
:100217001200D37B007A00790812015E8B188A19C5
:05022700891A1201DD3F
:02022C0080D977
:0300000002025E9B
:0C025E00787FE4F6D8FD758133020207BA
:10000300E709F608DFFA8046E709F208DFFA803EDF
:1000130088828C83E709F0A3DFFA8032E309F608CC
:10002300DFFA8078E309F208DFFA807088828C8334
:10003300E309F0A3DFFA806489828A83E0A3F608E8
:10004300DFFA805889828A83E0A3F208DFFA804CC2
:1000530080D280FA80C680D4806980F28033801099
:1000630080A680EA809A80A880DA80E280CA803302
:1000730089828A83ECFAE493A3C8C582C8CCC5837A
:10008300CCF0A3C8C582C8CCC583CCDFE9DEE7804A
:100093000D89828A83E493A3F608DFF9ECFAA9F0C9
:1000A300EDFB2289828A83ECFAE0A3C8C582C8CC1F
:1000B300C583CCF0A3C8C582C8CCC583CCDFEADE38
:1000C300E880DB89828A83E493A3F208DFF980CC9A
:1000D30088F0EF60010E4E60C388F0ED2402B40493
:1000E3000050B9F582EB2402B4040050AF2323453A
:0600F3008223900053730C
:1000F900BB010CE58229F582E5833AF583E02250BC
:1001090006E92582F8E622BBFE06E92582F8E22205
:0D011900E58229F582E5833AF583E493221F
:10012600BB0110E58229F582E5833AF583E0F5F017
:10013600A3E0225009E92582F886F008E622BBFEF4
:100146000AE92582F8E2F5F008E222E5832AF5833A
:08015600E993F5F0A3E99322FF
:00000001FF
