:100003007FBFDFEFF7FBFDFE00003E4141413E00B5
:1000130000000000217F010000002745454539000D
:10002300000022494949360000000C14247F0400D3
:100033000000725151514E0000003E4949492600CB
:1000430000004040404F70000000364949493600E7
:100053000000324949493E0000007F484830000013
:1000630000007F484C73000000007F4949490000AD
:1000730000003E414162000000007F08087F00004D
:10008300000000FFFF000000007F1008047F000055
:080093007C4848FF48487C004E
:10009B00E4FFFEE4FD75A0FFE50875F008A4240B52
:1000AB00F582E43400F583E5822DF582E43583F5A2
:1000BB0083E493F580ED90000393F5A00DBD08D577
:1000CB000FBF00010EBE13CBBF88C80508E508B4EF
:0700DB0012BEE4F50880B934
:030000000200E219
:0C00E200787FE4F6D8FD75810802009BD1
:00000001FF
