:10000000020003787FE4F6D8FD75810902004A02F8
:10001000008FE493A3F8E493A34003F68001F20871
:10002000DFF48029E493A3F85407240CC8C333C435
:10003000540F4420C8834004F456800146F6DFE4A0
:10004000800B010204081020408090009FE47E0194
:100050009360BCA3FF543F30E509541FFEE493A313
:1000600060010ECF54C025E060A840B8E493A3FA25
:10007000E493A3F8E493A3C8C582C8CAC583CAF0B1
:10008000A3C8C582C8CAC583CADFE9DEE780BEB29D
:10009000957F0A12009880F7AE071FEE70FA2202D1
:0400A0000800000054
:00000001FF
