:100141003F065B4F666D7D077F6F777C395E797106
:010151007637
:040152007F017E00AB
:0B015600EF1FAC0670011E4C70F6227B
:1000EB00E4FDED14600B14601024027012C2A280A8
:1000FB0002D2A2C2A3C2A48006C2A2D2A3C2A4747B
:10010B000F2DF8E6F5807F647E00120156E4F58032
:04011B000DBD03CE45
:01011F0022BD
:09016D00D288D2A8D2AFD2B2228E
:1001200012016DE50BC4540F90014193F50FE50BDF
:10013000540F93F510900151E493F5111200EB80E8
:01014000E2DC
:03000300020006F2
:10000600C0E0C0D075D000C000C002C003C004C0AC
:0500160005C006C00753
:10001B007508007FBC7E0212015630B2030200D875
:10002B007BE87A0320B213D3EB9400EA9400400AE6
:10003B00120152EB1B70ED1A80EA20B2030200D8BA
:10004B007A017BF430B213D3EB9400EA9400400AAC
:10005B00120152EB1B70ED1A80EAE4FD7517007A62
:10006B00007B3C20B213D3EB9400EA9400400A12BD
:10007B000152EB1B70ED1A80EA7A017BF430B2204F
:10008B00D3EB9400EA940040177F0A7E00120156CE
:10009B000508EB1B70011AE508D3941E40DF802D79
:1000AB0074092DF8C000E6C313D000F6E508C3941D
:1000BB0008400874092DF8E64480F675080005170A
:0D00CB00E517C3940840980DED6404708F94
:1000D800D007D006D005D004D003D002D000D0D0AD
:0300E800D0E03233
:0300000002016199
:0C016100787FE4F6D8FD758117020120BC
:00000001FF
