:10000000020003787FE4F6D8FD75810A02004A02F7
:10001000008FE493A3F8E493A34003F68001F20871
:10002000DFF48029E493A3F85407240CC8C333C435
:10003000540F4420C8834004F456800146F6DFE4A0
:10004000800B01020408102040809000C6E47E016D
:100050009360BCA3FF543F30E509541FFEE493A313
:1000600060010ECF54C025E060A840B8E493A3FA25
:10007000E493A3F8E493A3C8C582C8CAC583CAF0B1
:10008000A3C8C582C8CAC583CADFE9DEE780BE7CD3
:1000900001E4F50A8C801200B80509E50970020533
:1000A00008EC25E0FC0CE5096408450870067C01B5
:1000B000F508F5098C8080DE7FA77EAB7D10DDFE24
:0B00C000DEFADFF6002202080000005C
:00000001FF
