:100003003F065B4F666D7D077F6F777C395E797145
:0100130000EC
:03010200010A00EF
:1000F200438910758DFC758B18D2ABD2AFD28E228C
:050014001200F280FE65
:03001B000200AA36
:0D00AA00C0E0C083C082C0D075D000C00788
:1000B700758DFC758B180509E50970020508B4E80C
:1000C7001FE508B4031A750800750900AF0A050A89
:1000D700EF90000393F4F580E50AB41003750A0066
:0B00E700D007D0D0D082D083D0E03210
:0300000002001EDD
:0C001E00787FE4F6D8FD75810A020065C9
:10002A00020014E493A3F8E493A34003F68001F2D8
:10003A0008DFF48029E493A3F85407240CC8C333D7
:10004A00C4540F4420C8834004F456800146F6DFA6
:10005A00E4800B0102040810204080900102E47E33
:10006A00019360BCA3FF543F30E509541FFEE4939B
:10007A00A360010ECF54C025E060A840B8E493A362
:10008A00FAE493A3F8E493A3C8C582C8CAC583CA8D
:10009A00F0A3C8C582C8CAC583CADFE9DEE780BE45
:0101050000F9
:00000001FF
