:100379003F065B4F666D7D077F6F777C395E7971CC
:010389000073
:0B038A00EF1FAC0670011E4C70F62245
:1002DA00E4FDEDB40800504D9002E9F828287302B5
:1002EA00030102030502030D0203110203190203AB
:1002FA001D020325020329C2A28002D2A2C2A3C2FE
:10030A00A48022C2A28002D2A2D2A3C2A48016C210
:10031A00A28002D2A2C2A3D2A4800AC2A28002D21E
:10032A00A2D2A3D2A474102DF8E6F5807F0A7E002B
:0C033A0012038AE4F5800DED6408709653
:010346002294
:10036500758951758C3C758AB0D2A9D2ABD2AFD202
:040375008CD28E2276
:10001E00120365308E03020182AF8BE4FCFDFEE518
:10002E000B2FF50BEE350AF50AED3509F509EC3512
:10003E0008F508AF8DEFFEE4250BF50BE50A3EF54E
:10004E000AED3509F509EC3508F5087B407A427959
:10005E000F7800AF0BAE0AAD09FC1201C4AC00ADB7
:10006E0001AE02AF037BA07A86790178001201C43B
:10007E0074792FF58274033EF583E493F5107BA01B
:10008E007A8679017800AF0BAE0AAD09AC08120181
:10009E00C4AC00AD01AE02AF03E47B107A27F9F8D1
:1000AE001201C474792FF58274033EF583E493F53F
:1000BE0011E47B107A27F9F8AF0BAE0AAD09AC0844
:1000CE001201C4AC00AD01AE02AF03E47BE87A03CB
:1000DE00F9F81201C474792FF58274033EF583E4A6
:1000EE0093F512E47BE87A03F9F8AF0BAE0AAD098B
:1000FE00AC081201C4AC00AD01AE02AF03E47B64E8
:10010E00FAF9F81201C474792FF58274033EF5835F
:10011E00E493F513E47B64FAF9F8AF0BAE0AAD097C
:10012E00AC081201C4AC00AD01AE02AF03E47B0A11
:10013E00FAF9F81201C474792FF58274033EF5832F
:10014E00E493F514E47B0AFAF9F8AF0BAE0AAD09A5
:10015E00AC081201C474792BF58274033AF583E46A
:10016E0093F515E4F50BF50AF509F508F58DF58B04
:0A017E00D28CD28E1202DA020021A8
:03000B0002026787
:10026700C0E0C0F0C083C082C0D075D000C000C05D
:1002770001C002C003C004C005C006C007758C3C9E
:10028700758AB0E50F2401F50FE4350EF50EE43558
:100297000DF50DE4350CF50CE47F14FEFDFCAB0FFA
:1002A700AA0EA90DA80CC3120256700CC28CC28EDE
:1002B700F50FF50EF50DF50CD007D006D005D004D7
:1002C700D003D002D001D000D0D0D082D083D0F0DC
:0302D700D0E03242
:03001B0002034796
:10034700C0E0C0D0E4250BF50BE4350AF50AE50952
:0E0357003401F509E43508F508D0D0D0E032C5
:0300000002000EED
:0C000E00787FE4F6D8FD75811702001E13
:1001880075F008758200EF2FFFEE33FECD33CDCC2E
:1001980033CCC58233C5829BED9AEC99E5829840B1
:1001A8000CF582EE9BFEED9AFDEC99FC0FD5F0D68E
:1001B800E4CEFBE4CDFAE4CCF9A88222B800C1B9B8
:1001C8000059BA002DEC8BF084CFCECDFCE5F0CBF6
:1001D800F97818EF2FFFEE33FEED33FDEC33FCEB2F
:1001E80033FB10D703994004EB99FB0FD8E5E4F9EA
:1001F800FA227818EF2FFFEE33FEED33FDEC33FCD7
:10020800C933C910D7059BE99A4007EC9BFCE99ACA
:10021800F90FD8E0E4C9FAE4CCFB2275F010EF2F0F
:10022800FFEE33FEED33FDCC33CCC833C810D7070F
:100238009BEC9AE899400AED9BFDEC9AFCE899F84A
:0E0248000FD5F0DAE4CDFBE4CCFAE4C8F922DD
:10025600EB9FF5F0EA9E42F0E99D42F0E89C45F0FE
:010266002275
:00000001FF
