:03000000020344B4
:0C034400787FE4F6D8FD75810C0202966B
:10032200CBBEB9ABCFDED3D0BCBCBFC6D6D0C6D550
:0103320000CA
:100296007508801201E51202C6E4F508E508C39464
:1002A6000850F61202C67BFF7A037922AD08E4FFF6
:1002B6001201137F647E001203090508050880DC1D
:10030900D3EF9400EE9400400F7D267C82DCFEDD65
:08031900FAEF1F70EB1E80E8F3
:0103210022B9
:10000300C6D50040445464457E4444447E4564540C
:10001300444000000000FF49494949494949FF005C
:100023000000D6D00000FC08080808FF08080808EC
:10003300FC08000000000702020202FF02020202A3
:1000430007000000BFC6000000FF0000CC220091A3
:1000530051FE72921210000101FF02020204040415
:1000630000FF00010204BCBC000848C8487F4848A0
:10007300C8002848FF88080800206021120C0C13D0
:10008300204040007F804101D3D000040404E424D5
:100093002424272C34E444840400000000007FC996
:1000A3004929090909FF00000102CFDE0000007E93
:1000B3004A4A4ACA4AFE00824E3202FE00206021AA
:1000C300120C032040FF0003040200FFB9AB0080C1
:1000D30080C060100E0000840E30408000000000DD
:1000E3000130781410103123242870200100CBBE76
:1000F3000000FE0202129292929292929292100049
:1001030000003F4020000F0404040404041F000007
:0D02EB0033FE1202F8E50C2404FFE433FE9C
:1002F800C2B2D2A5C2A6C2A700008F800000D2A7B2
:0103080022D2
:10033300C2B2D2A5D2A6C2A700008F800000D2A766
:010343002297
:1001E500C2B3E4FF0FBF64FCC2B2D2B37FE27E00AC
:1001F5001202F8E4FF0FBF64FC7FA17E001202F833
:100205007FC81202F87FA61202F87FA41202F87FB7
:10021500A21202F87FF81202F87F011202F87F811C
:100225001202F87F231202F87F251202F87F2F129F
:1002350002F8E4FF0FBF64FC7F407E001202F87FE6
:0A024500AF1202F8E4FF0FBF64FCE3
:01024F00228C
:1002C600E4FDED24B01202F47F107E001202F87FE6
:1002D600041202F8E4FCE4FFFE1203330CBC80F6C1
:0402E6000DBD08DE64
:0102EA0022F1
:040113008F098D0AB9
:10011700E50AD3940740037F0022E509D394804082
:10012700037F002274B0250AF50AFF7E001202F849
:1001370012025070030201E2AF0A7E001202F8E5D4
:1001470009C4540FF50BE509540FF50CE50B241002
:10015700FFEE1202EBE4FD120250FF75F022EDA450
:100167002403F582E5F03400F583E4936F705C9027
:100177000001120269FF75F022EDA42404F582E55F
:10018700F03400F583E4936F7041FCEC6410701059
:10019700E50A24011202F4E50B2410FFE41202EB36
:1001A70075F022EDA42405F582E5F03400F583E52A
:1001B700822CF582E43583F583E493FF7E001203F6
:1001C700330CBC20C674102509F5090DED64327097
:0D01D70086740229F9E43AFA0201377F012B
:0101E40022F8
:10025000BB010689828A83E0225002E722BBFE02AC
:09026000E32289828A83E49322DF
:10026900BB010CE58229F582E5833AF583E022504A
:1002790006E92582F8E622BBFE06E92582F8E22294
:0D028900E58229F582E5833AF583E49322AE
:00000001FF
