:100084003F065B4F666D7D077F6F777C395E7971C4
:0B00AE00EF1FAC0670011E4C70F62224
:10000300E4F50975900FE590640F60747FE87E0353
:100013001200AEE590640F6067AF90EF24F56010B7
:1000230024FE601114601324077012E4F508800D98
:10003300750801800875080280037508037590F040
:10004300AF90EF2450601124E0601124F06011247C
:10005300707013850808800E74048006740880028B
:10006300740C2508F508C3E509648094B25011E5C2
:100073009064F0600B7FE87E031200AE050980E612
:01008300225A
:0E009400120003E50890008493F4F58080F2DA
:030000000200A259
:0C00A200787FE4F6D8FD75810902009417
:00000001FF
