:0A01A5003F065B4F666D7D077F6F1C
:0B018F00EF1FAC0670011E4C70F62242
:10000300E508B4320CE4F5087FD412016A8E0D8F33
:100013000E0508AE0DAF0E7C037DE812009974A5A2
:100023002FF58274013EF583E493F509AE0DAF0E0F
:100033007C037DE8120099AA04AB057D647C00AFC4
:1000430003AE0212009974A52FF58274013EF58365
:10005300E493F50A7D647C00AF03AE02120099AA13
:1000630004AB057D0A7C00AF03AE0212009974A5B0
:100073002FF58274013EF583E493F50B7D0A7C0032
:10008300AF03AE0212009974A52DF58274013CF5FD
:0500930083E493F50C6D
:010098002245
:1000EE00E4FDED14600E14601314601424037016F6
:1000FE00C2A28002D2A2C2A3C2A4800AC2A280025D
:10010E00D2A2D2A3C2A474092DF8E6F5807F647E34
:0B011E000012018FE4F5800DBD04C746
:0101290022B3
:0801AF001200031200EE80F8BB
:0B019A00C2B6D2B5D2B4D2B6C2B522B4
:10014E00C2B6E4FEEFC4131313540124FF92B4EFAE
:0B015E0025E0FFC2B6D2B60EBE08E9D5
:010169002273
:10012A00E4FFFEC2B6FDFCEF25E0FFEE33FED2B6D9
:10013A00C2B6A2B7E43342070DBD00010CED640C50
:03014A004C70E412
:01014D00228F
:10016A00C2B6C2B512014E7F06DFFED2B60000C289
:08017A00B6000012012AD2B503
:01018200225A
:0300000002018377
:0C018300787FE4F6D8FD75810E0201AF14
:10009900BC000BBE0029EF8DF084FFADF022E4CC4B
:1000A900F875F008EF2FFFEE33FEEC33FCEE9DEC14
:1000B900984005FCEE9DFE0FD5F0E9E4CEFD22ED5A
:1000C900F8F5F0EE8420D21CFEADF075F008EF2FA4
:1000D900FFED33FD4007985006D5F0F222C398FD95
:0500E9000FD5F0EA2232
:00000001FF
