:0A021F003F065B4F666D7D077F6FA1
:0301FC00010800F7
:0B020900EF1FAC0670011E4C70F622C7
:100146001201D8E513C4540F90021F93F509E51365
:10015600540F93F50A750B40E512C4540F93F50C32
:10016600E512540F93F50D750E40E511C4540F9327
:0A017600F50FE511540F93F5102268
:10008F00E4FDEDB40800504D90009EF8282873024F
:10009F0000B60200BA0200C20200C60200CE020081
:1000AF00D20200DA0200DEC2A28002D2A2C2A3C232
:1000BF00A48022C2A28002D2A2D2A3C2A48016C25E
:1000CF00A28002D2A2C2A3D2A4800AC2A28002D26C
:1000DF00A2D2A3D2A474092DF8E6F5807F647E0026
:0C00EF00120209E4F5800DED6408709623
:0100FB0022E2
:0B0214001201B512014612008F80F8A5
:0E01EE0081838587898B8D80828486888A8CA8
:0901FF00071100001207050616A5
:10018000C2B500C2B600D2B500E4FEEF1392B4EFE0
:10019000C313FFD2B600C2B6000EBE08EEE4FEEDF9
:1001A0001392B4EDC313FDD2B600C2B6000EBE0862
:0401B000EEC2B500E6
:0101B4002228
:1000FC00C2B500C2B600D2B500E4FDEF1392B4EF66
:10010C00C313FFD2B600C2B6000DBD08EE00E4FD6D
:10011C00A2B4E433FFC43333335480FCEEC3134C2A
:10012C00FED2B600C2B6000DBD08E5C2B500D2B60F
:09013C0000C2B400D2B400AF0609
:010145002297
:1001B500E4FD7F8E120180E4FCEC9001F593FF7461
:1001C500112CF8E6FD1201800CBC07ED7D807F8EB9
:0301D500020180A4
:1001D800E4FBEB9001EE93FF1200FC74112BF8A6E0
:0501E800070BBB07ED51
:0101ED0022EF
:03000000020003F8
:0C000300787FE4F6D8FD75811702004AF2
:10000F00020214E493A3F8E493A34003F68001F2F1
:10001F0008DFF48029E493A3F85407240CC8C333F2
:10002F00C4540F4420C8834004F456800146F6DFC1
:10003F00E4800B01020408102040809001FCE47E54
:10004F00019360BCA3FF543F30E509541FFEE493B6
:10005F00A360010ECF54C025E060A840B8E493A37D
:10006F00FAE493A3F8E493A3C8C582C8CAC583CAA8
:10007F00F0A3C8C582C8CAC583CADFE9DEE780BE60
:0102080000F5
:00000001FF
