:0A0315003F065B4F666D7D077F6FAA
:03032900010C00C4
:0402DE007FE87E0334
:0B02E200EF1FAC0670011E4C70F622EE
:1001A30020B1101202DE20B107AD0C7F011202C58F
:1001B30030B1FD20B0101202DE20B0077F01120221
:1001C300A38F0C30B0FD20B2247F647E001202E2C4
:1001D30020B217050CAF0CEF3395E0FED3EF94FF7D
:1001E300EE648094804003E4F50C30B2FD20B30C40
:0D01F3001202DE20B303E4F50C30B3FD2250
:10011A00E50CFB3395E0FA7C037DE8AF03FE1200A1
:10012A008F74152FF58274033EF583E493F5087CEA
:10013A00037DE8AF03AE0212008FAA04AB057D640B
:10014A007C00AF03AE0212008F74152FF582740380
:10015A003EF583E493F5097D647C00AF03AE021299
:10016A00008FAA04AB057D0A7C00AF03AE02120021
:10017A008F74152FF58274033EF583E493F50A7D97
:10018A000A7C00AF03AE0212008F74152DF582743B
:09019A00033CF583E493F50B220C
:10024100E4FDED14600E14601314601424037016A1
:10025100C2A28002D2A2C2A3C2A4800AC2A2800208
:10026100D2A2D2A3C2A474082DF8E6F5807F647EE1
:0B027100001202E2E4F5800DBD04C79E
:01027C00225F
:0B030A001201A312011A12024180F53B
:0502FC00120301D2A174
:080301007F017E02DEFEDFFA3F
:0103090022D1
:0F02ED00D2A01202FCC2A0120301C2A10203019F
:0A031F00C2A01202FCD2A0020301EA
:02020000AD0748
:10020200E4FBFAEDC4131313540124FF92A0ED256D
:10021200E0FD1202FCC2A11203010BBB08E5D2A051
:10022200120301D2A130A00F0AEAD394C840F6C249
:0E023200A11203017F0022C2A11203017F016D
:01024000229B
:10027D00E4FDFCD2A0120301D2A1120301EC25E092
:10028D00FCA2A0E4334204120301C2A11203010D2A
:05029D00BD08E5AF04FF
:0102A2002239
:1002C500AC05A9071202ED7FA0120200AF011202D0
:0902D50000AF0412020002031F35
:0202A300AC07A6
:1002A5001202ED7FA0120200AF041202001202ED4D
:0F02B5007FA112020012027DAD0712031FAF05D9
:0102C4002217
:03000000020003F8
:0C000300787FE4F6D8FD75810C02004AFD
:10008F00C2D5EC30E709B2D5E4C39DFDE49CFCEE8C
:10009F0030E715B2D5E4C39FFFE49EFE1200C5C33F
:1000AF00E49DFDE49CFC80031200C530D507C3E43A
:0600BF009FFFE49EFE22FB
:10000F0002030AE493A3F8E493A34003F68001F2FA
:10001F0008DFF48029E493A3F85407240CC8C333F2
:10002F00C4540F4420C8834004F456800146F6DFC1
:10003F00E4800B0102040810204080900329E47E25
:10004F00019360BCA3FF543F30E509541FFEE493B6
:10005F00A360010ECF54C025E060A840B8E493A37D
:10006F00FAE493A3F8E493A3C8C582C8CAC583CAA8
:10007F00F0A3C8C582C8CAC583CADFE9DEE780BE60
:01032C0000D0
:1000C500BC000BBE0029EF8DF084FFADF022E4CC1F
:1000D500F875F008EF2FFFEE33FEEC33FCEE9DECE8
:1000E500984005FCEE9DFE0FD5F0E9E4CEFD22ED2E
:1000F500F8F5F0EE8420D21CFEADF075F008EF2F78
:10010500FFED33FD4007985006D5F0F222C398FD68
:050115000FD5F0EA2205
:00000001FF
